S01D00006A736F72673030325F66696E616C50726F6A6563742E7372656310
S11300005BC1000078C1000076C1000074C100002B
S113001072C1000070C100006EC100006CC100001C
S11300206AC1000068C1000066C1000064C100002C
S113003062C100009EC200005EC100005CC10000FD
S11300405AC1000058C1000056C1000054C100004C
S113005052C1000050C100004EC100004CC100005C
S11300604AC1000048C1000046C1000044C100006C
S113007042C1000040C100003EC100003CC100007C
S11300803AC1000038C1000036C10000084AD73B1D
S11300903BCE016E84BCBFFDC12F3D6C74319ABD53
S11300A056833DDA3D00C77F11BED9E4BB4C3E9177
S11300B06BAAAABE000000803F05A84CCDB2D44E66
S11300C0B93836A9020C50B9918688083CA6AAAA68
S11300D02ABE000000803F00000000000000005F16
S11300E000000007000700147F147F14242A7F2ACD
S11300F01223130864623649552250000503000098
S1130100001C2241000041221C00082A1C2A080865
S1130110083E08080050300000080808080800607D
S113012060000020100804023E5149453E00427F11
S1130130400042615149462141454B311814127F18
S11301401027454545393C4A4949300171090503A1
S11301503649494936064949291E00363600000009
S113016056360000000814224114141414144122B9
S11301701408000201510906324979413E7E1111E9
S1130180117E7F494949363E414141227F41412206
S11301901C7F494949417F090901013E41415132CE
S11301A07F0808087F00417F41002040413F017FD4
S11301B0081422417F404040407F0204027F7F04B4
S11301C008107F3E4141413E7F090909063E4151E5
S11301D0215E7F09192946464949493101017F01B8
S11301E0013F4040403F1F2040201F7F2018207FB8
S11301F063140814630304780403615149454300FC
S1130200007F4141020408102041417F00000402A4
S113021001020440404040400001020400205454C4
S113022054787F484444383844444420384444484B
S11302307F3854545418087E090102081454543C5D
S11302407F0804047800447D40002040443D0000C1
S11302507F10284400417F40007C041804787C0807
S113026004047838444444387C14141408081414DE
S1130270187C7C080404084854545420043F444027
S1130280203C4040207C1C2040201C3C4030403C12
S113029044281028440C5050503C4464544C4400AE
S11302A00836410000007F000000413608000808BD
S11302B02A1C08081C2A080811241FBECFEFD0E40A
S11302C0DEBFCDBF11E0A0E0B1E0ECEBFFE200E067
S11302D00BBF02C007900D92A03BB107D9F721E0F4
S11302E0A0EBB1E001C01D92A63FB207E1F70E9466
S11302F0690F0C94DC1784CE8FEF87B918B8089572
S1130300181619065CF00895000021503109E1F730
S11303104F5F5F4F8417950719F4089540E050E04C
S113032027E033E0F1CF429898B19F70282F207FC7
S1130330922B98B9439AEFE9FFE03197F1F700C0A7
S113034000004398EFE9FFE03197F1F700C00000A7
S113035098B19F708295807F892B88B9439A81E0F8
S113036090E0CEDF439881E090E0CACF089581E029
S1130370DACF089582E0D7DF88E2D5DF8CE0D3DFDF
S113038086E0D1DF81E0CFCF0895813118F4815820
S1130390CACF08958155C7CF0895CF93C82F429AE5
S11303A088B18F709C2F907F892B88B9439A81E004
S11303B090E0A6DF439881E090E0A2DF88B18F70DF
S11303C0C295C07FC82BC8B9439A81E090E098DFFA
S11303D0439881E090E094DFCF9108950F931F93A9
S11303E0CF93DF93182FEB01C2DF8881882351F06C
S11303F001E0010F812FC9DF8991CFDF102F8881A0
S11304008111F6CFDF91CF911F910F9108951F9322
S1130410CF93DF93FB019081992359F0EB0111E015
S1130420180FB3DF8991B9DF812F98819111F7CF2C
S113043001C0182F812FDF91CF911F910895ACE057
S1130440B0E0E5E2F2E00C949814B62ED42E1F929C
S11304508F9302E211E01F930F93CE0101967C016A
S11304609F938F930E94011567E271E081E0CFDFD3
S1130470B701CDDF69E371E0CADFC82E1F92BF92D6
S11304801F930F937E0195E0E90EF11CFF92EF920A
S11304900E940115B7018C2DBADF6CE371E0B7DF60
S11304A0F82E1F92DF921F930F938E01075F1F4F49
S11304B01F930F930E940115B8018F2DA8DF0FB66B
S11304C0F894DEBF0FBECDBF2C96E9E00C94B414B3
S11304D0009719F0019729F011C06FE371E081E0F2
S11304E07DDF8091E50181110CC0E3E0F1E0428100
S11304F061818081A4DF81E090E0089580E090E054
S1130500089581E090E008956093060170930701D7
S113051080930801909309016093E6017093E701C9
S11305208093E8019093E90108958BE08093810022
S11305308DE790E0909389008093880082E0809317
S11305406F001092850010928400809106019091B2
S11305500701A0910801B09109018093E6019093ED
S1130560E701A093E801B093E9018FB780688FBFDA
S113057008951F920F920FB60F9211248F939F9399
S1130580AF93BF938091E6019091E701A091E801B8
S1130590B091E9010197A109B1098093E601909313
S11305A0E701A093E801B093E901892B8A2B8B2BF7
S11305B099F481E08093EA0180910601909107010A
S11305C0A0910801B09109018093E6019093E7019D
S11305D0A093E801B093E901BF91AF919F918F91EE
S11305E00F900FBE0F901F901895A8E0B0E0EBEFAE
S11305F0F2E00C948F146B017C012983642F70E06A
S113060080E090E00E944C1220E030E04FE753E499
S11306100E94B3114B015C012981622F70E080E0DC
S113062090E00E944C1220E030E04FE753E40E9437
S1130630B31168877F83182F092FC701B6010E9461
S11306404C126B017C0120E030E044EB53E40E9447
S11306505C1388230CF045C120E030E040E752E40D
S1130660C701B6010E94B3116B017C010E941B12E9
S11306700E944E129B01AC01C701B6010E94E51015
S11306806B837C838D839E83A501940160E070E07D
S113069080E89FE30E94E51028853F81412F502F79
S11306A00E946713362E272E682E792E2B813C81CB
S11306B04D815E81C501B4010E9467139B01AC01A9
S11306C060E070E080E89FE30E94E51028853F81A8
S11306D0412F502F0E94671369837A83482E592E25
S11306E02B813C814D815E8160E070E080E89FE376
S11306F00E94E510A50194010E9467139B01AC01BF
S113070060E070E080E89FE30E94E51028853F8167
S1130710412F502F0E946713A62EB72E982E892E94
S113072020E030E0A901C701B6010E945C138823D0
S11307305CF020E030E040E85FE3C701B6010E94CE
S1130740AC1188230CF47DC020E030E040E85FE386
S1130750C701B6010E945C1388235CF020E030E0FE
S113076040E050E4C701B6010E94AC1188230CF4A8
S1130770D4C020E030E040E050E4C701B6010E945C
S11307805C1388235CF020E030E040E450E4C701CF
S1130790B6010E94AC1188230CF45EC020E030E066
S11307A040E450E4C701B6010E945C1388235CF066
S11307B020E030E040E850E4C701B6010E94AC11EB
S11307C088230CF452C020E030E040E850E4C70134
S11307D0B6010E945C1388235CF020E030E040EA1C
S11307E050E4C701B6010E94AC1188230CF44EC03A
S11307F020E030E040EA50E4C701B6010E945C13F7
S113080088230CF454C020E030E040EC50E4C701ED
S1130810B6010E94AC1188230CF056C039812A819C
S1130820942D852D488549834F814A83412E502E2E
S113083038862F82162D072D332E222E692E782EE0
S11308406CC0888589832F812A83412E502EA886E7
S1130850BF82192D082D61C039822A82462C572C5B
S11308603A2C2B2C692C782C58C039812A81942D50
S1130870852D39822A82462C572C38842F80612E6C
S1130880702E38872F83192F082F47C038852F8162
S1130890912F802F38862F82162D072D332E222E4E
S11308A0692E782EA982BA82492C582C36C0312C54
S11308B0212C612C712C18861F8210E000E0198213
S11308C01A82412C512C29C0312C212C612C712CE1
S11308D018861F8210E000E019821A82412C512CE4
S11308E01CC0A501940160E070E080E89FE30E94D1
S11308F0E51028853F81412F502F0E946713362E23
S1130900272E682E792E488549838F818A83412E2C
S1130910502E38862F82162D072D20E030E04FE729
S113092053E469817A81842D952D0E9467130E9476
S11309302012F62E20E030E04FE753E468857F81F3
S1130940812F902F0E9467130E942012698320E058
S113095030E04FE753E4632D722D862D972D0E94CE
S113096067130E942012862F6F2D79812896E2E169
S11309700C94AB14A7E1B0E0E0ECF4E00C948F1419
S1130980E72EF82E70E080E090E00E944C1220E008
S113099030E04FE753E40E94B311262E372E082F80
S11309A0192F6E2D70E080E090E00E944C1220E040
S11309B030E04FE753E40E94B311E62ED72EC82E41
S11309C0A92E6F2D70E080E090E00E944C1220E090
S11309D030E04FE753E40E94B311462E672E882E71
S11309E09B872E2D3D2D4C2D5A2D622D732D802F3E
S11309F0912F0E94AC11882394F4242D362D482D78
S1130A005B856E2D7D2D8C2D9A2D0E94AC11882333
S1130A100CF457C15E2C7D2C9C2CBA2C1DC0242DAB
S1130A20362D482D5B85622D732D802F912F0E94CA
S1130A30AC1188230CF44AC12E2D3D2D4C2D5A2D7A
S1130A40622D732D802F912F0E94AC118823ACF45A
S1130A50522C732C902EB12E242D362D482D5B85CF
S1130A60622D732D802F912F0E94AC118823D4F016
S1130A704F826C86888AFB8427C0522C732C902E5C
S1130A80B12E242D362D482D5B856E2D7D2D8C2D7C
S1130A909A2D0E94AC11882354F04F826C86888A68
S1130AA0FB8412C02F823C86088BF12E0DC0EF828E
S1130AB0DC86C88AFA2C08C0542C762C982CBB846B
S1130AC02F823C86088BF12E20E030E04FE753E480
S1130AD0652D772D892D9B2D0E9467136C8B7D8B43
S1130AE08E8B9F8B2F813C8548895F2D652D772DBB
S1130AF0892D9B2D0E94E5106F83788789879A87BB
S1130B0020E030E0A901652D772D892D9B2D0E94D1
S1130B105C1318166CF5252D372D492D5B2D6F812F
S1130B20788589859A850E94B31120E030E04FE7EB
S1130B3053E40E946713688B798B8A8B9B8B2FE617
S1130B4032E143E85AE3652D772D892D9B2D0E94D0
S1130B50E5106C877D878E879F879B01AC01622D92
S1130B60732D802F912F0E945C13181644F02CC013
S1130B7019821A821B821C821D821E82B9C02FE632
S1130B8032E143E85AE3652D772D892D9B2D0E9490
S1130B90E6109B01AC01622D732D802F912F0E94D2
S1130BA0AC1188238CF4242D362D482D5B856E2DB5
S1130BB07D2D8C2D9A2D0E94E5102F813885498535
S1130BC05A850E94B3114DC02C853D854E855F85A5
S1130BD06E2D7D2D8C2D9A2D0E945C1318165CF5BC
S1130BE02FE632E143E85AE3652D772D892D9B2DBD
S1130BF00E94E6109B01AC016E2D7D2D8C2D9A2D4B
S1130C000E94AC118823BCF4222D332D402F512F88
S1130C10642D762D882D9B850E94E5102F813885C3
S1130C2049855A850E94B31120E030E040E050E449
S1130C300E94E61016C02E2D3D2D4C2D5A2D622DEE
S1130C40732D802F912F0E94E5102F8138854985BF
S1130C505A850E94B31120E030E040E850E40E943D
S1130C60E61020E030E040E752E40E9467136B0195
S1130C707C0120E030E0A9010E94AC11882354F4E7
S1130C8020E030E044EB53E4C701B6010E94E610D3
S1130C906B017C01C701B6010E94201269837A832B
S1130CA08B839C83688979898A899B890E94201215
S1130CB06D836C897D898E899F890E9420126E8341
S1130CC017C0542C762C982CBB84C6CE2E2D3D2DCB
S1130CD04C2D5A2D622D732D802F912F0E94AC1113
S1130CE088230CF4E9CE542C762C982CBB84C9CEE2
S1130CF029813A814B815C816D817E8180E090E025
S1130D006796E2E10C94AB148FEF84B9289A0895A6
S1130D10181619066CF420E030E0EFE9FFE0319793
S1130D20F1F700C000002F5F3F4F82179307A9F728
S1130D3008954F925F926F927F928F929F92AF929B
S1130D40BF92CF92DF92EF92FF922B013C01672B6F
S1130D50682B692B51F1E0E1F0E0C12CD12C760134
S1130D60812C912C5401689497F8C828D928EA2832
S1130D70FB28A7019601C701B6010E943B14461641
S1130D8057066806790650F4D501C40180959095FC
S1130D90A095B095C822D922EA22FB22B694A79442
S1130DA097948794319709F703C0C12CD12C76010D
S1130DB0C701B601FF90EF90DF90CF90BF90AF9046
S1130DC09F908F907F906F905F904F9008958EBD0D
S1130DD00DB407FEFDCF8EB508952B98F8DF2B9A3E
S1130DE00895CF93C82F892FF2DF8C2FF0DFCF9196
S1130DF008950F931F93CF93DF93082F192FEB01BF
S1130E008CE2EBDF209759F0912F9EBD0DB407FEC5
S1130E10FDCF0EBD0DB407FEFDCF2197B1F7DF91D5
S1130E20CF911F910F9108952A9881E090E070DF8F
S1130E302A9A86E990E06CCF0895F6DF81E1CDDF50
S1130E4086E990E065DF8AE3C8DF85E0C0DF89E2F8
S1130E50C4CF08950F931F93CF93DF93082FD62FFA
S1130E60142FC22F8AE2B9DF802F90E0BADF812FDE
S1130E7090E0B7DF8BE2B1DF8D2F90E0B2DF8C2FF3
S1130E8090E0AFDFDF91CF911F910F9108952FE98B
S1130E904FE760E080E0DEDF8CE29FDF80E090EAF5
S1130EA01EBC0DB407FEFDCF0197D1F708950F9333
S1130EB01F93CF93DF93162F082F2FE3729FC00148
S1130EC01124EFEFF0E0BF010E944A14EB01CC0FB4
S1130ED0DD1FC295D295D07FDC27C07FDC274FE190
S1130EE0419FC0011124BF010E944A14362F330FC1
S1130EF0330F330F20E02C2B3D2B409FC0011124D6
S1130F00BF010E944A14C901862B972BDF91CF9110
S1130F101F910F910895CF93DF93EA01262F482F55
S1130F2099DF61E070E0CE0164DFDF91CF91089535
S1130F300F931F93CF93DF93D82FC62F642F89016C
S1130F40242F4C2F87DFCD1BCF5F6C2F70E0C8019F
S1130F5050DFDF91CF911F910F9108950F931F934D
S1130F60CF93DF93D62FC42F8901242F482F72DF0C
S1130F70CD1BCF5F6C2F70E0C8013BDFDF91CF91B9
S1130F801F910F9108954F925F926F927F929F925B
S1130F90AF92BF92CF92DF92EF92FF920F931F9383
S1130FA0CF93DF93E62E6901A42EB12CAA9C2001D5
S1130FB0AB9C500C500C1124052C000C66087708CF
S1130FC0F82ED82F00E010E0009FC001019F900D83
S1130FD0900D1124092E000CAA0BBB0BA301920146
S1130FE0281B390B4A0B5B0BCA01B901A2DE9E2CEC
S1130FF0961AC62FCE0D96014C2F692D8D2FAEDF7C
S113100096014C2F692D8F2DA9DF0F5F1F4FDF5FD6
S1131010FA94A016B106C4F6DF91CF911F910F91F7
S1131020FF90EF90DF90CF90BF90AF909F907F9014
S11310306F905F904F900895A8E1B0E0E2E2F8E08D
S11310400C948F14888F6F8B1A830983CA01992398
S11310500CF40196AC01559547955E834D83C90107
S113106099230CF40196DC01B595A795BA8BA98B4D
S11310702D813E81032E000C440B550B2B8B3C8B96
S11310804D8B5E8BCA01B9010E943B146B017C013C
S1131090DC01CB01880F991FAA1FBB1F89879A8780
S11310A0AB87BC87A989BA894D01BB0FAA08BB08C5
S11310B0A5019401C501B4010E943B149B01AC013C
S11310C0220F331F441F551F2D873E874F87588B90
S11310D0A7019601C501B4010E943B146B017C0178
S11310E029853A854B855C85C501B4010E943B1472
S11310F02B013C0199230CF45CC0388C132D4989D5
S11311005A8958874F83812C912C54011C821B824D
S1131110232C49815A810F818F89080F602F812FD9
S1131120FADE49815A819F89AF819A1B988F692F72
S1131130812FF1DE49815A81602F832DECDE4981B4
S11311405A81688D832DE7DEEB81FC813196AB817A
S1131150BC812D853E854F8558890E948914C61A05
S1131160D70AE80AF90A820E931EA41EB51EFF20B0
S1131170ACF42F8138852150310938872F83D90168
S113118029853A854B855C850E948914C60ED71E35
S1131190E81EF91E421A530A640A750A1F5F3A943C
S11311A0FC83EB83481459046A047B040CF0B1CF2C
S11311B0288E49895A89449FC001459F900D900DFE
S11311C01124AD81BE818A9F60018B9FD00C9A9FB0
S11311D0D00C11240D2C000CEE08FF082B893C893F
S11311E04D895E896D857E858F8598890E943B1423
S11311F02B013C0199230CF452C01F891B83812CC1
S1131200912C5401212C312C49815A816B810D81FF
S1131210388D030F802F7FDE49815A81612F802F03
S11312207ADE49815A816B81088D8D81081B802F5C
S113123072DE49815A81612F802F6DDEF101319672
S1131240D10129853A854B855C850E948914C61A8B
S1131250D70AE80AF90A820E931EA41EB51EFF20BF
S11312609CF4AD81BE811197BE83AD832D853E85EF
S11312704F8558890E948914C60ED71EE81EF91E90
S1131280421A530A640A750ABB81BF5FBB831150BB
S11312901F01481459046A047B040CF0B5CF689606
S11312A0E2E10C94AB14AFE0B0E0E9E5F9E00C94B2
S11312B08F14E82F6E871E830D83CA0199230CF4C3
S11312C001966C01D594C794C90199230CF4019635
S11312D09C013595279539872887CC9CC001CD9CE6
S11312E0900D900D11249C01990F440B550B2A87E6
S11312F03B874C875D8748855985449FC001459F3E
S1131300900D900D11249C01990F440B550B2983CA
S11313103A834B835C832A853B854C855D85698153
S11313207A818B819C810E943B142B013C01EF83C9
S11313306E2F6C0D2D813E814E858E2F8C19F8DD1C
S113134048855985141615060CF098C00E850F5F54
S11313501E851150E12CF12C22242394312CF6010A
S113136002C0EE85FF8551E0E51AF108CF018E1920
S11313709F099F878E87181619060CF05EC02A8570
S11313803B854C855D856101032C000CEE08FF084C
S1131390C701B6010E943B149B01AC01C701B60111
S11313A00E943B144B015C0129813A814B815C8191
S11313B08E859F856C01990FEE08FF08C701B60161
S11313C00E943B149B01AC01C701B6010E943B146F
S11313D0DC01CB01880D991DAA1DBB1D48165906B9
S11313E06A067B060CF129C029813A814B815C8114
S11313F08E859F856C01990FEE08FF08C701B60121
S11314000E943B149B01AC01C701B6010E943B142E
S1131410DC01CB01880D991DAA1DBB1D4816590678
S11314206A067B0654F400C04E855F85415051091D
S11314305F874E87452BC1F600C07F012E853F850F
S1131440E21AF30A2D813E81402FCF805E85C50EBE
S11314506C2DDF80D51A8D2D6BDD2D813E81412FC2
S11314606C2D8D2D65DD8FEF281A380A0F5F115012
S113147028853985221533050CF073CF2F96E2E1C8
S11314800C94AB148091EB018F5F8093EB01853159
S113149038F08091EC018F5F8093EC011092EB01A6
S11314A08091EC01843110F01092EC010895A0E0D9
S11314B0B0E0EDE5FAE00C949614C82F862F642F63
S11314C0B22EC32E26E0240F44E0480FC3DC8CE286
S11314D084DC8C2F90E080977C01EE0CFF1CEE0CDA
S11314E0FF1C8E0D9F1D9C0128523F4F79010F2E2A
S11314F0F7E0DF2EF02DD1E0912CA12C13C0F801E0
S113150084918D2319F08B2D9C2D02C0892D9A2D49
S113151068DCC1500F5F1F4FC111F1CFDD0FDA94AA
S1131520DD2019F08701C5E0EACFCDB7DEB7EBE0E7
S11315300C94B2149B014091EC01440F440F440FEE
S11315409091EB01692F660F960F692F660FAFDF3D
S113155099CF08950F931F93CF93DF93EC01888164
S1131560882339F08B012196B801E4DF8991811138
S1131570FBCFDF91CF911F910F9108958FEE82B928
S11315800000009B29C0019B29C0029B29C0039B2A
S113159029C08FED82B90000009B26C0019B26C0A4
S11315A0029B26C0039B26C08FEB82B90000009BE0
S11315B023C0019B23C0029B23C0039B23C08FE74E
S11315C082B90000009B20C0019B20C0029B20C068
S11315D0039B20C080E0089581E3089584E3089587
S11315E087E308958AE2089582E3089585E30895E0
S11315F088E3089580E3089583E3089586E30895D6
S113160089E3089583E2089581E4089582E40895C6
S113161083E4089584E40895CF93DF93EC0182304A
S11316209105D1F034F4009709F43CC1019751F0CD
S113163045C18430910509F443C0ACF0059709F421
S113164061C03CC19BDF882309F43DC197DF8093CF
S1131650DC01C2E0D0E037C191DF8A3209F431C144
S1131660C1E0D0E030C18ADF8A32D1F48091DD015B
S11316708430B0F08EE00E9493011092DD0182E18B
S1131680809300011092E0011092E1011092E201B6
S11316901092E3011092DF0181E08093E50108C11B
S11316A06DDF8A3241F48091DD01843020F48F5F54
S11316B08093DD0108C11092DD01C1E0D0E003C1D7
S11316C08091DE01833029F0809100010E94C501E0
S11316D0EFC082E1809300011092DE011092E501D7
S11316E08091ED019091EE01A091EF0180930301AF
S11316F090930401A093050181E08093E401C5E087
S1131700D0E0E1C08091E4018111DDC0C1E0D0E00E
S1131710DAC034DF882309F4BDC030DF803308F435
S1131720B3C02CDF8A3308F0AFC028DF0E94CD019C
S1131730809100018F5F809300018091DF018130EF
S113174001F120F0823009F44AC09EC017DF90E016
S1131750C09744E6489F9001499F300D1124C90168
S1131760330FAA0BBB0B8093E0019093E101A0938C
S1131770E201B093E3018091DF018F5F8093DF0189
S113178083C0FCDE282F30E020533109C901880FC3
S1131790991F220F331F220F331F220F331F820F73
S11317A0931F092E000CAA0BBB0B4091E001509132
S11317B0E1016091E2017091E301840F951FA61F7E
S11317C0B71F8093E0019093E101A093E201B093ED
S11317D0E3018091DF018F5F8093DF0155C0CEDE8E
S11317E090E0C097092E000CAA0BBB0B4091E001BE
S11317F05091E1016091E2017091E301840F951F22
S1131800A61FB71F8093E0019093E101A093E2012A
S1131810B093E301209100012E5F209300018F3FDC
S11318209105A105B10569F060F08FEF90E0A0E0AB
S1131830B0E08093E0019093E101A093E201B093C2
S1131840E3018091DE01813049F018F0823059F0D3
S11318500EC09091E0019093ED0109C09091E001D8
S11318609093EE0104C09091E0019093EF018F5F9B
S11318708093DE011092DF011092E0011092E101E9
S11318801092E2011092E30179DE8093DC01C4E05E
S1131890D0E019C073DE811108C01092DC01C4E0ED
S11318A0D0E011C0C1E0D0E00EC0C4E0D0E00BC075
S11318B065DE9091DC0189132CCFECCFC0E0D0E041
S11318C002C0C3E0D0E0CE01DF91CF910895E0EBF8
S11318D0F0E0808183608083E1EBF0E080818260CE
S11318E080831092B3001092B4000895813031F4D3
S11318F0E0EBF0E08081806880830895823029F4F1
S1131900E0EBF0E08081806280830895813031F4DF
S1131910E0EBF0E080818F7780830895823029F4B2
S1131920E0EBF0E080818F7D80830895009719F0CB
S1131930019731F034C06BE471E081E00E94EE0164
S11319408BB1E3E0F1E090819F73807C892B8BB9AC
S11319508BB1908192959695969593708C7F892BF7
S113196088B98181882339F081E0C0DF8091040146
S11319708093B30002C081E0C9DF80910501882310
S113198049F082E0B3DF809105018093B40081E0E7
S113199090E0089582E0BADF81E090E0089580E06D
S11319A090E008954F925F926F927F928F929F92F0
S11319B0AF92BF92EF92FF920F931F93CF93DF9357
S11319C07B01EA0148015901BC01990F880B990B6D
S11319D065D52B013C01B701FF0C880B990B5ED533
S11319E0A301920166D42BED3FE049E450E4EED329
S11319F02BED3FE049EC50E4B6D420E030E044EB7A
S1131A0053E465D61DD5662E772EE82EF92EBE0139
S1131A10DD0F880B990B42D59B01AC01C501B401C4
S1131A20A2D420E030E04FE753E451D609D5C62FC5
S1131A30862F90E0E1D7FF92EF927F926F9287E535
S1131A4091E09F938F93C5D72FEF4C2F662D772D61
S1131A508E2D9F2D0E94F5020F900F900F900F90E6
S1131A600F900F90DF91CF911F910F91FF90EF9006
S1131A70BF90AF909F908F907F906F905F904F90AA
S1131A8008954F925F926F927F928F929F92AF923E
S1131A90BF92CF92DF92EF92FF921F93CF93DF9387
S1131AA0CDB7DEB72A970FB6F894DEBF0FBECDBF11
S1131AB049835A836B837C83590149805A806B80A4
S1131AC07C80682F70E080E090E0E6D420E030E095
S1131AD04FE753E448D46B017C018BE5481651046D
S1131AE06104710408F03FC0C301B201D5D42BEDE9
S1131AF03FE049E450E4EBD520E030E044E353E434
S1131B0032D42B013C012CD46F83788789879A8740
S1131B10B501BB0C880B990BC1D44B015C019B0133
S1131B20AC01C701B601D3D56B017C019B01AC01AB
S1131B306F81788589859A85CAD59B01AC01C501D9
S1131B40B40143D37DD4162FC301B20123D69B0124
S1131B50AC01C701B601BBD59B01AC01C501B40101
S1131B6034D36ED4E1C0D301C2018B559109A109CC
S1131B70B1098A359105A105B10508F044C084EB8B
S1131B8090E0A0E0B0E0BC01CD01641975098609BC
S1131B90970982D42BED3FE049E450E498D520E046
S1131BA030E044E353E4DFD32B013C01D9D36F830A
S1131BB0788789879A87B501BB0C880B990B6ED4FB
S1131BC04B015C012F81388549855A85C701B601CF
S1131BD07ED5A50194017BD5A5019401F7D230D41B
S1131BE0162FC301B201D6D59B01AC01C701B601C2
S1131BF06ED5A50194016BD59B01AC01C501B4015F
S1131C00E4D21ED491C0D301C201855B9109A1091C
S1131C10B1098A359105A105B10508F042C08EE0ED
S1131C2091E0A0E0B0E0BC01CD016419750986091A
S1131C30970932D42BED3FE049E450E448D520E045
S1131C4030E044E353E48FD32B013C01A3D56F83ED
S1131C50788789879A87B501BB0C880B990B1ED4AA
S1131C604B015C012F81388549855A85C701B6012E
S1131C702ED5A50194012BD5A5019401A7D2E0D3BB
S1131C80162FC301B2016CD39B01AC01C701B6018D
S1131C901ED5A50194011BD5A501940197D2D0D3DB
S1131CA043C088E691E0A0E0B0E0BC01CD01641936
S1131CB0750986099709F0D32BED3FE049E450E418
S1131CC006D520E030E044E353E44DD32B013C013E
S1131CD047D36F83788789879A87B501BB0C880BB4
S1131CE0990BDCD34B015C012F81388549855A85DA
S1131CF0C701B601ECD4A5019401E9D49B01AC0160
S1131D00C501B40162D29CD3162FC301B20142D5DE
S1131D109B01AC01C701B601DAD4A5019401D7D463
S1131D20A501940153D28CD384E0810F94E1960FE2
S1131D302A960FB6F894DEBF0FBECDBFDF91CF91C8
S1131D401F91FF90EF90DF90CF90BF90AF909F9046
S1131D508F907F906F905F904F900895A0E0B0E0D7
S1131D60E3EBFEE0E0C56894662462F80F2EF4EC21
S1131D70AF2EBB24BA94F02D33C0889C6001899C9B
S1131D80D00CD00C1124CC0EDD1E0D2C000CEE0852
S1131D90FF08C701B60182D307D56B017C0120E09F
S1131DA030E040E752E4D8D2882364F497018601F6
S1131DB04CE350E0B401C501F5DD79D8AC01672DE1
S1131DC0862DA9D88FEF881A980A73948CE8781214
S1131DD0D4CF8FEFA81AB80A63948CE7681689F0F9
S1131DE0AA9CE001AB9CD00DD00D11240F2EF4E180
S1131DF07F2EF02D0F2EF4EC8F2E99249A94F02D33
S1131E00BCCFCDB7DEB7EEE0AAC5A6E0B0E0EAE00D
S1131E10FFE095C581309105B9F082309105C9F094
S1131E20892B09F04EC06AE571E081E00E94EE0161
S1131E3095DFE1E0F1E020E030E045E06181808180
S1131E40A2D881E090E042C02091E40121113CC07D
S1131E503DC066E671E081E00E94EE017FDF6091A3
S1131E60030170910401809105010E94BA04B22F0C
S1131E70A32FF42FE52F862F972F2CE330E04B2F41
S1131E805A2F6F2F7E2FFDDD909302018093010165
S1131E9080910301811108C080910401811104C063
S1131EA080910501882341F0E1E0F1E020E030E099
S1131EB045E06181808167D81092E40181E090E07F
S1131EC005C080E090E002C082E090E02696E2E067
S1131ED052C5A8E1B0E0EEE6FFE023C580EF81B98A
S1131EE08FE082B98FEF8AB91BB80E947C010E94EF
S1131EF084060E94BA01EBDC6DE671E082E00E9488
S1131F00EE0181E58CBD0E941D0780E1EAE0F1E06D
S1131F10DE01119601900D928A95E1F780E40E940A
S1131F2093018E010F5F1F4F7E0122E1E20EF11C2F
S1131F30D8018D918D010E94CD010E151F05C1F7A9
S1131F4080E00E94930181E00E9493010E94470770
S1131F5000E010E022E330E044E650E06BE470E09F
S1131F608CE390E0A0D900EE17E022E330E044E6F1
S1131F7050E06BE470E08CE390E05ED885E0809301
S1131F80EB0189E08093EC0160EE7FEF86E791E05E
S1131F90E1DA61E871E081E00E94EE01BFEFE3ED78
S1131FA0F0E3B150E040F040E1F700C000006FE919
S1131FB071E081E00E94EE0182E10E94C50180E0AF
S1131FC00E94CD0183E10E94C50181E00E94CD0100
S1131FD02FEF83ED90E3215080409040E1F700C063
S1131FE000000F2EF8EEDF2EF02D0F2EF3E0CF2E93
S1131FF0F02DB12CA12C51E040E030E020E004C0F1
S1132000D62EC72EB82EA92E652F742F832F922F6C
S11320102D2D3C2D4B2D5A2D50D45D2D4C2D3B2D6B
S11320202A2D611571058105910551F70F2EF8ECE4
S1132030EF2EF02DF12C00E010E004C0E62EF72E78
S1132040082F192F6D2D7C2D8B2D9A2D2E2D3F2D84
S1132050402F512F32D4DE2CCF2CB02EA12E61155F
S113206071058105910551F768EE73E080E090E019
S11320702E2D3F2D402F512F20D449015A0161E0CC
S113208070E080E090E02E2D3F2D402F512F15D48D
S113209029013A0168EC70E080E090E02E2D3F2D9C
S11320A0402F512F0AD488E0EAE1F1E0DE01519695
S11320B001900D928A95E1F7E1EDF1E06FEF608315
S11320C081829282A382B48285829682A782B0861C
S11320D088E692E092878187E6ECF1E060834182B2
S11320E0528263827482458256826782708686E950
S11320F09CE092878187EBEBF1E06083818292829E
S1132100A382B48285829682A782B08685E09FE00E
S113211092878187E0EBF1E06083218332834383FC
S1132120548325833683478350878CE09BE09287D2
S113213081876E2D7F2D802F912F0E9484020E9413
S113214095027E01A9E1EA0EF11C6E01B1E1CB0E0C
S1132150D11CF601019111916F01D80115964D9191
S11321605D916D917C91189711968D919D910D9033
S1132170BC91A02D481759076A077B0781F4F80121
S113218080810184F285E02D082E000C990B0995BD
S1132190D8018C93F8011582168217821086F801F3
S11321A085819681A781B0850196A11DB11D858386
S11321B09683A783B087EC14FD0459F68091EA0155
S11321C08823E1F31092EA01C0CF5058BB27AA2715
S11321D00ED027C2F0D130F0F5D120F031F49F3F7A
S11321E011F41EF4C0C10EF4E095E7FBB6C1E92F6B
S11321F03AD280F3BA17620773078407950718F079
S113220071F49EF552C20EF4E0950B2EBA2FA02D58
S11322100B01B90190010C01CA01A0011124FF278F
S1132220591B99F0593F50F4503E68F11A16F0408A
S1132230A22F232F342F4427585FF3CF4695379589
S11322402795A795F0405395C9F77EF41F16BA0B4E
S1132250620B730B840BBAF09150A1F0FF0FBB1FFC
S1132260661F771F881FC2F70EC0BA0F621F731F45
S1132270841F48F4879577956795B795F7959E3FA2
S113228008F0B3CF9395880F08F09927EE0F979530
S11322908795089590D158F080E891E009F49EEF75
S11322A091D128F040E851E059F45EEF09C05BC1D8
S11322B0FCC1E92FE078D7D168F3092E052AC1F3D0
S11322C0261737074807590738F00E2E07F8E02578
S11322D069F0E025E0640AC0EF6307F8009407FAA8
S11322E0DB01B9019D01DC01CA01AD01EF934AD0C4
S11322F098D10AD05F91552331F02BED3FE049E4AA
S113230050FD49EC63CF0895DF93DD27B92FBF77E4
S113231040E85FE31616170648075B0710F4D92F49
S1132320CFD19F938F937F936F937CD2ECE8F0E0AF
S11323301DD177D12F913F914F915F91D4D1DD235E
S113234049F09058A2EA2AED3FE049EC5FE3D078E7
S11323505D274DDFDF9165C1DCD008F481E008958D
S113236039D1E3956FC10CD05CC12CD140F023D19D
S113237030F021F45F3F19F0F0C0511197C1F3C060
S113238072D198F39923C9F35523B1F3951B550BD7
S1132390BB27AA2762177307840738F09F5F5F4F34
S11323A0220F331F441FAA1FA9F333D00E2E3AF075
S11323B0E0E830D091505040E695001CCAF729D08F
S11323C0FE2F27D0660F771F881FBB1F26173707DE
S11323D04807AB07B0E809F0BB0B802DBF01FF270E
S11323E093585F4F2AF09E3F510568F0B6C05EC116
S11323F05F3FECF3983EDCF3869577956795B79548
S1132400F7959F5FC9F7880F911D9695879597F962
S11324100895E1E0660F771F881FBB1F62177307DB
S11324208407BA0720F0621B730B840BBA0BEE1FF0
S113243088F7E095089504D06894B11137C10895E0
S11324401AD188F09F5790F0B92F9927B751A0F06F
S1132450D1F0660F771F881F991F1AF0BA95C9F734
S113246012C0B13081F021D1B1E008951EC1672FAF
S1132470782F8827B85F39F0B93FCCF386957795E4
S11324806795B395D9F73EF49095809570956195CD
S11324907F4F8F4F9F4F0895E89409C097FB3EF4F8
S11324A090958095709561957F4F8F4F9F4F99239D
S11324B0A9F0F92F96E9BB279395F695879577951B
S11324C06795B795F111F8CFFAF4BB0F11F460FFDB
S11324D01BC06F5F7F4F8F4F9F4F16C0882311F033
S11324E096E911C0772321F09EE8872F762F05C047
S11324F0662371F096E8862F70E060E02AF09A95E2
S1132500660F771F881FDAF7880F9695879597F9D6
S11325100895990F0008550FAA0BE0E8FEEF161670
S11325201706E807F907C0F012161306E407F507C3
S113253098F0621B730B840B950B39F40A2661F037
S1132540232B242B252B21F408950A2609F4A140DA
S1132550A6958FEF811D811D089597F99F6780E8E7
S113256070E060E008959FEF80EC0895DF93CF93CF
S11325701F930F93FF92EF92DF927B018C0168947B
S113258005C0DA2EEF01AFD0FE01E894A5912591A4
S1132590359145915591AEF3EF0129DEFE01970186
S11325A0A801DA9479F7DF90EF90FF900F911F91D3
S11325B0CF91DF91089500240A9416161706180681
S11325C00906089500240A94121613061406050633
S11325D00895C9CF50D0E8F3E894E0E0BB279F57B3
S11325E0F0F02AED3FE049EC06C0EE0FBB0F661F8A
S11325F0771F881F28F0B23A62077307840728F010
S1132600B25A620B730B840BE3959A9572F7803878
S113261030F49A95BB0F661F771F881FD2F7904836
S113262006C1092E0394000C11F4882352F0BB0F49
S113263040F4BF2B11F460FF04C06F5F7F4F8F4FD6
S11326409F4F0895EF93E0FF06C0A2EA2AED3FE012
S113265049EC5FEBCCDDE5DF0F90039401FC90586F
S1132660E9EBF0E0F7C057FD9058440F551F59F0BF
S11326705F3F71F04795880F97FB991F61F09F3F6B
S113268079F087950895121613061406551FF2CF94
S11326904695F1DF08C0161617061806991FF1CFE4
S11326A086957105610508940895E894BB2766270B
S11326B07727CB0197F908952CDF08F48FEF08955D
S11326C09B01AC0160E070E080E89FE34CCE0BD04E
S11326D0A8CF71DF28F076DF18F0952309F03DCFFD
S11326E042CF1124E3CFBFDFA0F3959FD1F3950F21
S11326F050E0551F629FF001729FBB27F00DB11D82
S1132700639FAA27F00DB11DAA1F649F6627B00D11
S1132710A11D661F829F2227B00DA11D621F739FFA
S1132720B00DA11D621F839FA00D611D221F749F08
S11327303327A00D611D231F849F600D211D822F4F
S1132740762F6A2F11249F5750408AF0E1F0882396
S11327504AF0EE0FFF1FBB1F661F771F881F9150A3
S11327605040A9F79E3F510570F0F7CE9FCF5F3FD1
S1132770ECF3983EDCF3869577956795B795F795D6
S1132780E7959F5FC1F7FE2B880F911D969587955E
S113279097F908959F931EDF0F9007FCEE5F52CFC9
S11327A011F40EF4E0CE41C066DFD0F39923D9F3DF
S11327B0CEF39F57550B87FF46D00024A0E640EA8E
S11327C0900180585695979528F4805C660F771F82
S11327D0881F20F026173707480730F4621B730B55
S11327E0840B202931294A2BA69517940794202578
S11327F031254A2758F7660F771F881F20F02617C0
S11328003707480730F4620B730B840B200D311D1E
S1132810411DA09581F7B901842F9158880F969591
S1132820879508959B01AC0152CF9F3F31F09150A1
S113283020F4879577956795B795880F911D9695A0
S1132840879597F9089591505040660F771F881F18
S1132850D2F708959F938F937F936F93FF93EF9392
S11328609B01AC0134DFEF91FF9180DE2F913F910A
S11328704F915F912CCFDB018F939F9340D0BF91F9
S1132880AF91A29F800D911DA39F900DB29F900DBB
S11328901124089597FB072E16F4009406D077FDB3
S11328A008D074D007FC05D03EF4909581959F4FD5
S11328B00895709561957F4F0895A1E21A2EAA1B81
S11328C0BB1BFD010DC0AA1FBB1FEE1FFF1FA217DC
S11328D0B307E407F50720F0A21BB30BE40BF50BD9
S11328E0661F771F881F991F1A9469F76095709562
S11328F0809590959B01AC01BD01CF0108955AD0FC
S1132900A59F900DB49F900DA49F800D911D11243F
S11329100895B7FFF4CFF3DF821B930B08952F9232
S11329203F924F925F926F927F928F929F92AF925B
S1132930BF92CF92DF92EF92FF920F931F93CF93A8
S1132940DF93CDB7DEB7CA1BDB0B0FB6F894DEBF3F
S11329500FBECDBF09942A88398848885F846E8465
S11329607D848C849B84AA84B984C884DF80EE80AF
S1132970FD800C811B81AA81B981CE0FD11D0FB6B8
S1132980F894DEBF0FBECDBFED010895AA1BBB1B9B
S113299051E107C0AA1FBB1FA617B70710F0A61B5B
S11329A0B70B881F991F5A95A9F780959095BC017C
S11329B0CD010895A29FB001B39FC001A39F700DE4
S11329C0811D1124911DB29F700D811D1124911D33
S11329D00895CF93DF93CDB7DEB7AE014B5F5F4F62
S11329E0FA0161917191AF018091F2019091F3012B
S11329F036D0DF91CF9108956091F2017091F30187
S1132A0041C20F931F93CF93DF93CDB7DEB72E97B9
S1132A100FB6F894DEBF0FBECDBF0D891E8986E0C8
S1132A208C831A8309838FEF9FE79E838D83AE0186
S1132A30475E5F4F6F89788DCE01019610D0EF818C
S1132A40F885E00FF11F10822E960FB6F894DEBFC2
S1132A500FBECDBFDF91CF911F910F9108952F929B
S1132A603F924F925F926F927F928F929F92AF921A
S1132A70BF92CF92DF92EF92FF920F931F93CF9367
S1132A80DF93CDB7DEB72B970FB6F894DEBF0FBE3A
S1132A90CDBF6C017B018A01FC0117821682838100
S1132AA081FFBFC1CE0101963C01F6019381F7017C
S1132AB093FD859193FF81917F01882309F4ADC132
S1132AC0853239F493FD859193FF81917F0185329D
S1132AD021F4B60190E0D6D1E8CF912C212C312CF1
S1132AE0FFE1F315D8F08B3279F038F4803279F0C5
S1132AF08332A1F4232D20611DC08D3261F0803317
S1132B0069F4232D216016C0832D8260382EE32DB5
S1132B10E4603E2E2AC0F32DF8601DC037FC2DC0A2
S1132B2020ED280F2A3040F08E32B9F436FC75C1FE
S1132B30232D2064322E19C036FE06C08AE0989EEA
S1132B40200D1124922E11C0EAE02E9E200D112496
S1132B50222EF32DF0623F2E08C08C3621F4832DF3
S1132B608068382E02C0883641F4F70193FD8591C0
S1132B7093FF81917F018111B3CF982F9F7D95544D
S1132B80933028F40C5F1F4F9FE399830DC0833665
S1132B9031F0833771F0833509F055C020C0F80156
S1132BA0808189830E5F1F4F88248394912C530165
S1132BB012C02801F2E04F0E511CF801A080B18030
S1132BC036FE03C0692D70E002C06FEF7FEFC501D0
S1132BD04ED14C018201F32DFF773F2E15C0280101
S1132BE022E0420E511CF801A080B18036FE03C0E1
S1132BF0692D70E002C06FEF7FEFC5012DD14C014C
S1132C00F32DF0683F2E820133FC19C0822D90E031
S1132C1088169906A0F4B60180E290E033D12A9494
S1132C20F5CFF50137FC859137FE81915F01B6013F
S1132C3090E028D121102A9421E0821A910881146D
S1132C40910479F7E1C0843611F0893639F5F80139
S1132C5037FE07C060817181828193810C5F1F4FB1
S1132C6008C060817181072E000C880B990B0E5FE0
S1132C701F4FF32DFF763F2E97FF09C09095809547
S1132C80709561957F4F8F4F9F4FF0683F2E2AE0DC
S1132C9030E0A30133D1882E861844C0853731F43F
S1132CA0232D2F7EB22E2AE030E025C0932D997F6C
S1132CB0B92E8F36C1F018F4883579F0AEC080375C
S1132CC019F0883721F0A9C0E92FE061BE2EB4FEC7
S1132CD00DC0FB2DF460BF2E09C034FE0AC0292F9D
S1132CE02660B22E06C028E030E005C020E130E0C6
S1132CF002C020E132E0F801B7FE07C060817181B3
S1132D00828193810C5F1F4F06C06081718180E0D6
S1132D1090E00E5F1F4FA301F1D0882E8618FB2D83
S1132D20FF773F2E36FE0DC0232D2E7FA22E891451
S1132D3058F434FE0BC032FC09C0832D8E7EA82EBD
S1132D4005C0B82CA32C03C0B82C01C0B92CA4FE18
S1132D500FC0FE01E80DF11D8081803321F49A2D0E
S1132D60997EA92E09C0A2FE06C0B394B39404C0F0
S1132D708A2D867809F0B394A3FC10C0A0FE06C087
S1132D80B21480F4280C922C9B180DC0B21458F481
S1132D90B60180E290E076D0B394F8CFB21418F480
S1132DA02B1802C0982C212CA4FE0FC0B60180E37E
S1132DB090E068D0A2FE16C0A1FC03C088E790E0B2
S1132DC002C088E590E0B6010CC08A2D867851F0E7
S1132DD0A1FE02C08BE201C080E2A7FC8DE2B60135
S1132DE090E050D0891430F4B60180E390E04AD0EA
S1132DF09A94F8CF8A94F301E80DF11D8081B6010D
S1132E0090E040D08110F6CF222009F44ECEB601D6
S1132E1080E290E037D02A94F7CFF601868197813B
S1132E2002C08FEF9FEF2B960FB6F894DEBF0FBE54
S1132E30CDBFDF91CF911F910F91FF90EF90DF9065
S1132E40CF90BF90AF909F908F907F906F905F9046
S1132E504F903F902F900895FC0105906150704071
S1132E600110D8F7809590958E0F9F1F0895FC014F
S1132E706150704001900110D8F7809590958E0FA5
S1132E809F1F08950F931F93CF93DF93FB0123811B
S1132E9021FD03C08FEF9FEF2CC022FF16C0468197
S1132EA05781248135814217530744F4A081B181AD
S1132EB09D012F5F3F4F318320838C93268137817F
S1132EC02F5F3F4F3783268314C08B01EC01FB0136
S1132ED00084F185E02D0995892BE1F6D801169639
S1132EE08D919C911797019617969C938E931697A4
S1132EF0CE01DF91CF911F910F910895FA01AA2776
S1132F00283051F1203181F1E8946F936E7F6E5F28
S1132F107F4F8F4F9F4FAF4FB1E03ED0B4E03CD0D6
S1132F20670F781F891F9A1FA11D680F791F8A1FB9
S1132F30911DA11D6A0F711D811D911DA11D20D020
S1132F4009F468943F912AE0269F11243019305DDA
S1132F503193DEF6CF010895462F4770405D4193CB
S1132F60B3E00FD0C9F7F6CF462F4F70405D4A3318
S1132F7018F0495D31FD4052419302D0A9F7EACFE0
S1132F80B4E0A6959795879577956795BA95C9F70F
S1132F9000976105710508959B01AC010A2E069402
S1132FA05795479537952795BA95C9F7620F731FBB
S10F2FB0841F951FA01D0895F894FFCF06
S1132FBC124050FFFFFF010000001F111D1D151BC7
S1132FCC1F1F1F1F1117111D111FD101C601BB019A
S1132FDCB0012530336400436F6C6F723A202020AB
S1132FEC2020202020202052007C47007C420053CB
S1132FFC4D31205374617274656400534D32205307
S113300C74617274656400256300534D33205374EA
S113301C617274656400534156494E47004C4344F5
S113302C20494E49540055435220435331323042C7
S113303C003132304220202020202020202020204B
S113304C2046696E616C2050726F6A656374004A25
S113305C6F6E617320536F7267656E66726569007B
S9030000FC
